:020000040000FA
:100000000C94E0000C9408010C9408010C94080175
:100010000C9408010C9408010C9408010C9408013C
:100020000C9408010C9408010C9408010C9408012C
:100030000C9408010C9408010C9408010C9408011C
:100040000C94A6050C9408010C9474050C944E05B0
:100050000C9408010C9408010C9408010C940801FC
:100060000C9408010C94080100407A10F35A00A087
:10007000724E18090010A5D4E80000E87648170071
:1000800000E40B54020000CA9A3B000000E1F505B1
:10009000000080969800000040420F000000A086FB
:1000A00001000000102700000000E803000000002D
:1000B0006400000000000A000000000001000000D1
:1000C00000002C76D888DC674F0823DFC1DFAE59EB
:1000D000E1B1B796E5E3E453C63AE651997696E87E
:1000E000E6C28426EB898C9B62ED407C6FFCEFBC02
:1000F0009C9F40F2BAA56FA5F490055A2AF75C932D
:100100006B6CF9676DC11BFCE0E40D47FEF520E662
:10011000B500D0ED902E0300943577050080841E45
:10012000080000204E0A000000C80C333333330FA0
:10013000986E12831141EF8D2114893BE65516CF3D
:10014000FEE6DB18D1844B381BF77C1D901DA4BB49
:10015000E424203284725E228100C9F124ECA1E5FE
:100160003D2700000000240027002A0000000000B6
:10017000250028002B0000000008000201000003F9
:100180000407000000000000000000000000230041
:1001900026002900040404040404040402020202E8
:1001A000020203030303030301020408102040803A
:1001B000010204081020010204081020F005BE0806
:1001C00011241FBECFEFD8E0DEBFCDBF22E0A6E3F3
:1001D000B1E001C01D92A130B207E1F711E0A0E04B
:1001E000B1E0E8E8FDE102C005900D92A633B10749
:1001F000D9F710E0CFEDD0E004C02197FE010E94B6
:10020000B60CCE3DD107C9F70E9456060C94B70E26
:100210000C940000CF92DF92EF92FF92CF93DF9386
:10022000B091F101A0E08111AB2F8091F20190E03B
:10023000880F991FAC0146575E4FC090F701D090D0
:10024000F801E090F901F090FA0130E020E0FA01C5
:10025000C591D491E881B90190E080E0EB23EA13E5
:100260000AC02F5F3F4F6C157D058E059F0578F303
:100270006FEF7FEFCB01DF91CF91FF90EF90DF9099
:10028000CF9008950895AF92BF92CF92DF92EF92F0
:10029000FF920F931F93CF93DF936C017B018B0130
:1002A000040F151FEB015E01AE18BF08C017D10780
:1002B00059F06991D601ED91FC910190F081E02D0A
:1002C000C6010995892B79F7C501DF91CF911F915F
:1002D0000F91FF90EF90DF90CF90BF90AF90089577
:1002E000FC01538D448D252F30E0842F90E0821B3C
:1002F000930B541710F0CF96089501970895FC01C1
:10030000918D828D981761F0A28DAE0FBF2FB11D18
:100310005D968C91928D9F5F9F73928F90E0089570
:100320008FEF9FEF0895FC01918D828D981731F02A
:10033000828DE80FF11D858D90E008958FEF9FEF7E
:100340000895FC01918D228D892F90E0805C9F4F54
:10035000821B91098F739927089583E491E00E948D
:10036000A10121E0892B09F420E0822F089580E08B
:1003700090E0892B29F00E94AD0181110C940000BE
:100380000895FC01A48DA80FB92FB11DA35ABF4F2A
:100390002C91848D90E001968F739927848FA68984
:1003A000B7892C93A089B1898C91837080648C93D8
:1003B000938D848D981306C00288F389E02D808187
:1003C0008F7D80830895EF92FF920F931F93CF93B9
:1003D000DF93EC0181E0888F9B8D8C8D98131AC080
:1003E000E889F989808185FF15C09FB7F894EE8967
:1003F000FF896083E889F9898081837080648083C4
:100400009FBF81E090E0DF91CF911F910F91FF900E
:10041000EF900895F62E0B8D10E00F5F1F4F0F73B6
:100420001127E02E8C8D8E110CC00FB607FCFACF71
:10043000E889F989808185FFF5CFCE010E94C1014D
:10044000F1CFEB8DEC0FFD2FF11DE35AFF4FF08242
:100450009FB7F8940B8FEA89FB8980818062CFCFA8
:10046000CF93DF93EC01888D8823B9F0AA89BB89EB
:10047000E889F9898C9185FD03C0808186FD0DC0D6
:100480000FB607FCF7CF8C9185FFF2CF808185FFF7
:10049000EDCFCE010E94C101E9CFDF91CF91089548
:1004A00090E0FC01EA58FE4F2491FC01E855FE4F14
:1004B0003491FC01EC56FE4FE491EE23C9F0222367
:1004C00039F0233001F1A8F4213019F1223029F15B
:1004D000F0E0EE0FFF1FE459FE4FA591B4918FB7E6
:1004E000F894EC91611126C030953E233C938FBF68
:1004F00008952730A9F02830C9F0243049F78091B9
:1005000080008F7D03C0809180008F778093800072
:10051000DFCF84B58F7784BDDBCF84B58F7DFBCFF4
:100520008091B0008F778093B000D2CF8091B000DF
:100530008F7DF9CF3E2BDACFCF93DF9390E0FC0194
:10054000E855FE4F24918C569E4FFC0184918823E0
:10055000D1F090E0880F991FFC01EE59FE4FA59154
:10056000B491FC01E459FE4FC591D491623071F40D
:100570009FB7F8943C91822F809583238C93E881D8
:100580002E2B28839FBFDF91CF9108958FB7F894CA
:10059000EC912E2B2C938FBFF6CF3FB7F894809120
:1005A0003B0190913C01A0913D01B0913E0126B5E7
:1005B000A89B05C02F3F19F00196A11DB11D3FBF9B
:1005C000BA2FA92F982F8827BC01CD01620F711D6A
:1005D000811D911D42E0660F771F881F991F4A9564
:1005E000D1F708958F929F92AF92BF92CF92DF92F0
:1005F000EF92FF924B015C010E94CD026B017C01E6
:100600000E94CD026C197D098E099F09683E7340D6
:1006100081059105A8F321E0821A9108A108B1088B
:1006200088EEC80E83E0D81EE11CF11C81149104F1
:10063000A104B10429F7FF90EF90DF90CF90BF9015
:10064000AF909F908F9008952FB7F89460913701E5
:10065000709138018091390190913A012FBF08952E
:10066000CF92DF92EF92FF920F931F93CF93DF937E
:10067000CDB7DEB7C054D1400FB6F894DEBF0FBE81
:10068000CDBF0E9424030091F3011091F401209149
:10069000F5013091F6016B017C01C01AD10AE20A22
:1006A000F30A97018601003D17402105310590F4BA
:1006B0008091FB01C05CDE4F0FB6F894DEBF0FBE29
:1006C000CDBFDF91CF911F910F91FF90EF90DF9001
:1006D000CF9008956093F3017093F4018093F50136
:1006E0009093F6011092EE011092ED011092EC0140
:1006F0001092EB011092EA0162E08091EF010E94FA
:100700009C0261E070E080E090E00E94F20261E013
:100710008091EF010E949C0260E08091EF010E94B5
:1007200050028091F0018551823020F58BE291E1F9
:100730000197F1F762E08091EF010E949C028091A5
:10074000FC0190E08230910538F0880F991F880FE6
:10075000991F05970197F1F7F89480E00E940A012C
:100760006F3F7F4F8F4F9F4F61F41092FB01789442
:1007700080E0A0CF64E170E080E090E00E94F202AF
:10078000D9CF81E00E940A016F3F7F4F8F4F9F4F6B
:1007900061F38E010F5F1F4F6E012FEBC21A2EEF18
:1007A000D20A780180E00E940A01F7016083718318
:1007B0008283938381E00E940A01F7016483758339
:1007C00086839783F8E0EF0EF11CEC14FD0451F7DB
:1007D000789430E020E0F801C080D180E280F3809E
:1007E0004481558166817781FFEFCF16DF06EF06E2
:1007F000FF0631F04F3F8FEF58076807780719F46D
:100800001092FB01B5CFF90183E0F595E7958A9544
:10081000E1F7E651FE4F8081880FC416D506E60643
:10082000F70610F180832F5F3F4F085F1F4F28327C
:10083000310589F64091EE012091EA018091EB01AA
:10084000280F3327331F8091EC01280F311D809131
:10085000ED01820F932F911D99274817190681F6F4
:1008600081E08093FB0126CF8160DCCF0F931F9343
:100870000E94240360934B0170934C0180934D01BF
:1008800090934E0183E491E00E947F0197FF1DC089
:100890000E94240300914B0110914C0120914D01C5
:1008A00030914E01601B710B820B930B009147013D
:1008B000109148012091490130914A016017710758
:1008C00082079307F8F28FEF9FEF1F910F91089522
:1008D0002091E8013091E901232B39F421E0FC015A
:1008E0008081882361F020E00AC0BC018091E4018E
:1008F0009091E5010E94A70E21E0892BA1F7822F9C
:100900000895CF93DF93EC0188819981009711F0CE
:100910000E94580D198218821D821C821B821A8225
:10092000DF91CF910895FC0180819181009711F0B2
:100930000C94580D08950F931F93CF93DF93EC0100
:1009400088819981009759F02A813B8126173707C2
:1009500030F081E0DF91CF911F910F9108958B01CD
:100960006F5F7F4F0E94E10D009759F09983888354
:100970001B830A832C813D81232B59F7FC011082B4
:10098000E8CF80E0E7CFEF92FF920F931F93CF93D2
:10099000DF936115710541F480E0DF91CF911F91E4
:1009A0000F91FF90EF90089541155105B1F07B0133
:1009B000EC010C811D81040F151FB8010E949B04DE
:1009C000882351F3288139818C819D81B701820F61
:1009D000931F0E94B00E1D830C8381E0DECFEF9247
:1009E000FF920F931F93CF93DF93EC017B018A015A
:1009F000BA010E949B0481110BC0CE010E948104A8
:100A0000CE01DF91CF911F910F91FF90EF9008954C
:100A10001D830C83B701888199810E94B00EF0CFAD
:100A2000EF92FF920F931F93CF93DF93CDB7DEB773
:100A3000A1970FB6F894DEBF0FBECDBF7C01CB01EE
:100A4000BA01F70111821082138212821582148278
:100A50008E010F5F1F4F22E044E00E94C208009702
:100A6000C9F0FC0101900020E9F73197AF01481B64
:100A7000590BBC01C7010E94EF04A1960FB6F89470
:100A8000DEBF0FBECDBFDF91CF911F910F91FF90C1
:100A9000EF900895C7010E948104EFCF1F920F923B
:100AA0000FB60F9211242F933F934F935F936F9341
:100AB0007F938F939F93AF93BF93EF93FF9383E4C1
:100AC00091E00E94C101FF91EF91BF91AF919F9181
:100AD0008F917F916F915F914F913F912F910F90E7
:100AE0000FBE0F901F9018951F920F920FB60F9286
:100AF00011242F938F939F93EF93FF93E0915301D2
:100B0000F09154018081E0915901F0915A0182FDE8
:100B10001BC0908180915C018F5F8F7320915D017C
:100B2000821741F0E0915C01F0E0ED5BFE4F958FA4
:100B300080935C01FF91EF919F918F912F910F9086
:100B40000FBE0F901F9018958081F4CF1F920F92C7
:100B50000FB60F9211242F933F938F939F93AF93D0
:100B6000BF938091370190913801A0913901B091E4
:100B70003A013091360123E0230F2D3758F50196C5
:100B8000A11DB11D20933601809337019093380148
:100B9000A0933901B0933A0180913B0190913C01BF
:100BA000A0913D01B0913E010196A11DB11D809320
:100BB0003B0190933C01A0933D01B0933E01BF9156
:100BC000AF919F918F913F912F910F900FBE0F90FA
:100BD0001F90189526E8230F0296A11DB11DD2CFB4
:100BE000E3E4F1E01382128288EE93E0A0E0B0E04B
:100BF00084839583A683B7838AE091E09183808381
:100C000085EC90E09587848784EC90E097878687D1
:100C100080EC90E0918B808B81EC90E0938B828BC9
:100C200082EC90E0958B848B86EC90E0978B868BA2
:100C3000118E128E138E148EAAEEB1E08FE01596EF
:100C40008C9315978BE016968C931697E7EBF1E053
:100C5000E4911796EC931797E3EAF1E0E491189684
:100C6000EC93189740E85EE360E070E01D964D93CA
:100C70005D936D937C935097E4EEF1E011821082C6
:100C8000138212821582148250E040E065E371E025
:100C9000CF010E94EF040E9424036093E00170934F
:100CA000E1018093E2019093E3010895CF93DF93F4
:100CB000CDB7DEB762970FB6F894DEBF0FBECDBFDB
:100CC000789484B5826084BD84B5816084BD85B527
:100CD000826085BD85B5816085BD80916E00816033
:100CE00080936E00109281008091810082608093D9
:100CF00081008091810081608093810080918000DB
:100D00008160809380008091B10084608093B10005
:100D10008091B00081608093B00080917A008460FF
:100D200080937A0080917A00826080937A0080912B
:100D30007A00816080937A0080917A008068809345
:100D40007A001092C100E0915301F091540182E0C9
:100D50008083E0914F01F09150011082E0915101A8
:100D6000F09152018FEC808310925B01E09157016A
:100D7000F091580186E08083E0915501F091560191
:100D8000808180618083E0915501F09156018081DE
:100D900088608083E0915501F091560180818068E0
:100DA0008083E0915501F091560180818F7D808391
:100DB00061E08DE00E949C0262E08091EF010E9460
:100DC0009C020E942403605D774081099109609331
:100DD000F3017093F4018093F5019093F60187E39A
:100DE0008093FC0100E010E083E491E00E94A10107
:100DF000181619060CF058C01A8219821C821B8220
:100E00001E821D8250E040E065E371E0CE01019654
:100E10000E94EF040E94360497FD0FC083329105B3
:100E200061F08F83188641E050E0BE01695F7F4F1B
:100E3000CE0101960E94C304EDCF8091E401909110
:100E4000E501009709F463C069817A816115710534
:100E500009F45BC04091E6015091E7012D813E818C
:100E60004217530708F451C00E94B00E8D819E8135
:100E70009093E9018093E8011E821D82CE010196C4
:100E80000E94930488E191E00E94680461E081116E
:100E900008C08AE191E00E946804882309F44EC0EA
:100EA00060E08DE00E9450020E9424038090E001E7
:100EB0009090E101A090E201B090E30168197909F6
:100EC0008A099B09693E73408105910508F42AC18E
:100ED0000E9424036093E0017093E1018093E2019A
:100EE0009093E3010E943003882351F08091F00138
:100EF0008B3030F08D3098F18551823008F464C029
:100F000060E070E080EC9FE746C00E94580D898148
:100F10009A819093E5018093E4018B819C81909369
:100F2000E7018093E6018D819E819093E901809392
:100F3000E8011A8219821C821B829ECF8CE191E00B
:100F40000E94680461E0811108C086E291E00E947D
:100F50006804882309F4A8CF60E088E0A3CF6091FB
:100F6000EB0170E090E080E00E94190B2DEC3CEC6E
:100F70004CEC5DE30E94540B4B015C016091EA0173
:100F800070E090E080E00E94190B9B01AC01C5016C
:100F9000B4010E944A0C60933F017093400180931A
:100FA0004101909342010E943003882341F08091D7
:100FB000F0018C3009F4C2C0C8F48B3081F160E0DC
:100FC00070E080EC9FE753C06091EA017091EB0103
:100FD00076276727762790E080E00E94170B2DEC9C
:100FE0003CEC4CEC5DE30E94540BD5CF8551823034
:100FF00030F7F090EC016F2D70E0762F66276627B2
:101000007F778091ED01682B90E080E00E94170BC4
:101010002DEC3CEC4CEC5DE30E94540BABC06091BA
:10102000EC0170E090E080E00E94170B4B015C0146
:10103000F090ED01F7FE0AC0AC019B0160E070E0AA
:1010400080E89FEB0E94490C4B015C016F2D6F7093
:1010500070E090E080E00E94190B2DEC3CEC4CEC31
:101060005DE30E94540BA50194010E944A0CAB0160
:10107000BC01CE0101960E94100540913F015091A4
:1010800040016091410170914201CE010D960E9494
:10109000100518861F821A8619861C861B866D8588
:1010A0007E856115710531F049895A89CE0107960F
:1010B0000E94EF0441E050E061E371E0CE01079649
:1010C0000E94C304811104C0CE0107960E948104CE
:1010D0004D815E8169817A81CE0107960E94C304A9
:1010E000811104C0CE0107960E9481044B855C8566
:1010F0006F81788583E491E00E94430142E050E0F3
:1011000063E371E083E491E00E944301CE0107961E
:101110000E949304CE010D960E949304CE01019685
:101120000E9493040115110509F45ECE0E94AD01E1
:10113000882309F459CE0E94000056CEF090EC01AD
:101140006F2D70E090E080E00E94170B4B015C0176
:101150006091ED016F7070E090E080E00E94190BEB
:101160002DEC3CEC4CEC5DE30E94540BA50194018A
:101170000E944A0CF7FE7BCF905879CF84EE91E025
:101180000C949304EF920F931F93CF93DF93E80196
:1011900034E047FD34E1042E000C550B57FF03C02B
:1011A000519541955109E32E022F242FAE010E9443
:1011B000E008CE01DF91CF911F910F91EF9008953C
:1011C000A9E0B0E0E6EEF8E00C94180C6A01F22E0B
:1011D000B02E102FFBE3AF2EA01608F41BE31F5F09
:1011E000012F27E0AE014F5F5F4F0E943F0ABC0115
:1011F0008981982F9970913009F43FC09BE2E1FCFE
:1012000004C09E2D9170E0FC3AC05E2D5071E82F15
:10121000E87083FF46C084E0911101C083E0EF2DA8
:10122000E81B8F1508F0E0E0D6018E2F20E2552351
:1012300051F1992329F0D6019C93C60101966C01C6
:1012400096012D5F3F4FE2FE24C08EE4D6018C93C1
:1012500091E411969C93119712968C93D9018E2F3D
:1012600090E281111BC0E20FF32FF11D10828EEF6F
:101270009FEF2996ECE00C94340C9DE2C6CF90E2EF
:10128000C4CF2D9381508111FCCFCE0ED11CE0E054
:10129000D0CF8EE6D6018C9391E6DBCF9D93815023
:1012A000E0CF482F447082FF3DC084E0911101C01F
:1012B00083E08F1510F4EF2DE81BD6018E2F20E26E
:1012C000552309F1992329F0D6019C93C601019673
:1012D0006C0196012D5F3F4FE2FE1BC089E4D601F1
:1012E0008C938EE411968C93119786E412968C93CE
:1012F000D9018E2F90E2882309F4B5CF9D938150B8
:10130000FACF2D9381508111FCCFCE0ED11CE0E09D
:10131000D9CF89E6D6018C938EE611968C931197DE
:1013200086E6E4CF9B0177FF02C030E020E0A1E039
:10133000B0E0911102C0B0E0A0E0F9013196AE0F2B
:10134000BF1F8B2C912CBB2009F461C05401EFEF1F
:10135000AE1ABE0AAA0DBB1DFA161B0619F014F030
:101360004F2D4A1B511188C0E3FC59C07601A42FB0
:10137000B0E2A1114FC0C40ED11C992309F45BC087
:1013800040E0D6011196F60190836D01552309F4D2
:1013900048C0012F060F9A81582F507184FF03C057
:1013A000913309F4015010160CF047C0093008F0D1
:1013B00008E0EEE2FE2E5B01A01AB10885019194CF
:1013C000819491082F3F320729F4D601FC92F6014F
:1013D00031966F016217730794F1021713077CF5BA
:1013E000DB01A21BB30BAA24A394B12CAC0EBD1E2F
:1013F000AA0DBB1D11968C9121503109D601119671
:1014000028153905F4F0F60180836D01DBCFB12C8E
:10141000A12CA0CFF701B1937F01A150AACF9111C8
:10142000B0CFD601942F50E302C05D93915091113B
:10143000FCCFC40ED11C40E0ACCF01E0BACF80E3BA
:10144000DBCF6217730731F4963388F4953311F4C8
:10145000552369F0F6018083FD01842F90E281110C
:1014600008C0A40FB11D1C9290E080E002CF81E380
:10147000F1CF91938150F3CF911183CF8ACF283050
:1014800008F027E03327DA01990F311D87FD9160BD
:1014900000966105710539F432602E5F3D9330E3AB
:1014A0002A95E1F708959F3F30F080387105610576
:1014B00009F03C5F3C5F3D93913008F08068911DDE
:1014C000DF93CF931F930F93FF92EF92192F987F83
:1014D0009695E92F96959695E90FFF27EE53FF4FC6
:1014E00099273327EE24FF24A701E70105900894EC
:1014F000079428F4360FE71EF81E491F511D660F8A
:10150000771F881F991F0694A1F70590079428F468
:10151000E70EF81E491F561FC11D770F881F991F20
:10152000661F0694A1F70590079428F4F80E491F4A
:10153000561FC71FD11D880F991F661F771F06945E
:10154000A1F70590079420F4490F561FC71FD81F15
:10155000990F661F771F881F0694A9F7849110952D
:10156000177041F0D695C79557954795F794E7942E
:101570001A95C1F7E8E6F0E0689415901591359159
:101580006591959105907FE27395E118F10A430BFF
:10159000560BC90BD009C0F7E10CF11E431F561FB3
:1015A000C91FD01D7EF4703311F48A95E6CFE894FC
:1015B000015030F0080F0AF40027021708F4202F1A
:1015C0002395022F7A3328F079E37D932A95E9F762
:1015D00010C07D932A9589F606949795679537955F
:1015E00017951794E118F10A430B560BC90BD00954
:1015F00098F023957E9173957A3308F070E37C938D
:101600002013B8F77E9170617D9330F0839571E37C
:101610007D9370E32A95E1F71124EF90FF900F91ED
:101620001F91CF91DF91992787FD90950895E894B8
:1016300009C097FB3EF490958095709561957F4F1A
:101640008F4F9F4F9923A9F0F92F96E9BB279395C8
:10165000F695879577956795B795F111F8CFFAF4D8
:10166000BB0F11F460FF1BC06F5F7F4F8F4F9F4F09
:1016700016C0882311F096E911C0772321F09EE867
:10168000872F762F05C0662371F096E8862F70E0CD
:1016900060E02AF09A95660F771F881FDAF7880FA7
:1016A0009695879597F908950E94670B0C94D80B2F
:1016B0000E94CA0B38F00E94D10B20F0952311F044
:1016C0000C94C10B0C94C70B11240C940C0C0E94AD
:1016D000E90B70F3959FC1F3950F50E0551F629F82
:1016E000F001729FBB27F00DB11D639FAA27F00D7B
:1016F000B11DAA1F649F6627B00DA11D661F829FA2
:101700002227B00DA11D621F739FB00DA11D621F86
:10171000839FA00D611D221F749F3327A00D611DA3
:10172000231F849F600D211D822F762F6A2F112485
:101730009F5750409AF0F1F088234AF0EE0FFF1FB8
:10174000BB1F661F771F881F91505040A9F79E3F0F
:10175000510580F00C94C10B0C940C0C5F3FE4F32A
:10176000983ED4F3869577956795B795F795E79565
:101770009F5FC1F7FE2B880F911D9695879597F96E
:10178000089597F99F6780E870E060E008959FEF03
:1017900080EC089500240A94161617061806090608
:1017A000089500240A9412161306140605060895D7
:1017B000092E0394000C11F4882352F0BB0F40F45F
:1017C000BF2B11F460FF04C06F5F7F4F8F4F9F4F9F
:1017D000089557FD9058440F551F59F05F3F71F021
:1017E0004795880F97FB991F61F09F3F79F0879588
:1017F0000895121613061406551FF2CF4695F1DF11
:1018000008C0161617061806991FF1CF86957105A0
:10181000610508940895E894BB2766277727CB01D4
:1018200097F908952F923F924F925F926F927F9215
:101830008F929F92AF92BF92CF92DF92EF92FF92E0
:101840000F931F93CF93DF93CDB7DEB7CA1BDB0B8C
:101850000FB6F894DEBF0FBECDBF09942A88398831
:1018600048885F846E847D848C849B84AA84B98438
:10187000C884DF80EE80FD800C811B81AA81B98144
:10188000CE0FD11D0FB6F894DEBF0FBECDBFED0158
:1018900008955058BB27AA270E94610C0C94D80BBE
:1018A0000E94CA0B38F00E94D10B20F039F49F3F00
:1018B00019F426F40C94C70B0EF4E095E7FB0C9496
:1018C000C10BE92F0E94E90B58F3BA17620773079F
:1018D0008407950720F079F4A6F50C940B0C0EF410
:1018E000E0950B2EBA2FA02D0B01B90190010C0130
:1018F000CA01A0011124FF27591B99F0593F50F448
:10190000503E68F11A16F040A22F232F342F44279F
:10191000585FF3CF469537952795A795F040539597
:10192000C9F77EF41F16BA0B620B730B840BBAF067
:101930009150A1F0FF0FBB1F661F771F881FC2F7D2
:101940000EC0BA0F621F731F841F48F487957795E6
:101950006795B795F7959E3F08F0B0CF9395880FA0
:1019600008F09927EE0F979587950895EE0FFF1FC2
:101970000590F491E02D09940F931F93CF93DF937B
:101980008230910510F482E090E0E091FF01F09147
:10199000000230E020E0B0E0A0E0309799F421159B
:1019A000310509F44AC0281B390B24303105D8F51C
:1019B0008A819B816115710589F1FB019383828383
:1019C000FE0111C0408151810281138148175907DE
:1019D000E0F04817590799F4109761F012960C93AC
:1019E000129713961C933296CF01DF91CF911F91DE
:1019F0000F9108950093FF0110930002F4CF211579
:101A0000310551F04217530738F0A901DB019A0163
:101A1000BD01DF01F801C1CFEF01F9CF90930002C2
:101A20008093FF01CDCFFE01E20FF31F81939193CD
:101A30002250310939832883D7CF2091FD0130917D
:101A4000FE01232B41F420910201309103013093D8
:101A5000FE012093FD01209100013091010121152B
:101A6000310541F42DB73EB7409104015091050175
:101A7000241B350BE091FD01F091FE01E217F30705
:101A8000A0F42E1B3F0B2817390778F0AC014E5FEE
:101A90005F4F2417350748F04E0F5F1F5093FE012C
:101AA0004093FD01819391939FCFF0E0E0E09CCFC4
:101AB000CF93DF930097E9F0FC01329713821282F3
:101AC000A091FF01B0910002ED0130E020E01097FD
:101AD000A1F420813181820F931F2091FD0130916B
:101AE000FE012817390709F061C0F093FE01E09369
:101AF000FD01DF91CF910895EA01CE17DF07E8F5E8
:101B00004A815B819E0141155105B1F7E901FB83D3
:101B1000EA8349915991C40FD51FEC17FD0761F471
:101B2000808191810296840F951FE90199838883B2
:101B3000828193819B838A83F0E0E0E012968D910D
:101B40009C9113970097B9F52D913C911197CD0178
:101B50000296820F931F2091FD013091FE012817FC
:101B6000390739F6309751F5109200021092FF01B3
:101B7000B093FE01A093FD01BCCFD383C28340810B
:101B80005181840F951FC817D90761F44E5F5F4FCD
:101B900088819981480F591F518340838A819B8195
:101BA000938382832115310509F0B0CFF0930002B1
:101BB000E093FF019ECFFD01DC01C0CF13821282B2
:101BC000D7CFB0E0A0E0E7EEFDE00C94140C8C0160
:101BD000009751F4CB010E94BC0C8C01C801CDB719
:101BE000DEB7E0E10C94300CFC01E60FF71F9C011E
:101BF00022503109E217F30708F49DC0D901CD91B5
:101C0000DC911197C617D70798F0C530D10530F38E
:101C1000CE0104978617970708F3C61BD70B2297A8
:101C2000C193D1936D937C93CF010E94580DD6CF71
:101C30005B01AC1ABD0A4C018C0E9D1EA091FF01E8
:101C4000B0910002512C412CF12CE12C109731F570
:101C50008091FD019091FE018815990509F05CC005
:101C60004616570608F058C0809100019091010176
:101C7000009741F48DB79EB7409104015091050142
:101C8000841B950BE817F90708F055C0F093FE0187
:101C9000E093FD01F90171836083A0CF8D919C9148
:101CA000119712966C90129713967C901397A81523
:101CB000B90559F56C0142E0C40ED11CCA14DB040D
:101CC00020F1AC014A195B09DA011296159780F0F0
:101CD0006282738251834083D9016D937C93E114B6
:101CE000F10471F0D7011396FC93EE93129776CF1F
:101CF00022968C0F9D1FF90191838083F301EFCF12
:101D0000F0930002E093FF0169CF4816590608F4EA
:101D10002C017D01D3019ACFCB010E94BC0C7C0128
:101D2000009749F0AE01B8010E949E0EC8010E94C2
:101D3000580D870153CF10E000E050CFFB01DC01CC
:101D400002C001900D9241505040D8F70895FB0118
:101D5000DC018D91019080190110D9F3990B089540
:101D6000FB01DC0101900D920020E1F7089510E0E5
:101D7000CFEDD0E004C0FE010E94B60C2196C03E1B
:101D8000D107C9F7F894FFCF0000010280000000DE
:101D90000000E301430170013002A1017F019301C2
:101DA0003100300062757A7A65725F6F6E0062751D
:0E1DB0007A7A65725F6F6666003B000D0A006E
:107E0000112484B714BE81FFF0D085E080938100F7
:107E100082E08093C00088E18093C10086E0809377
:107E2000C20080E18093C4008EE0C9D0259A86E02C
:107E300020E33CEF91E0309385002093840096BBD3
:107E4000B09BFECF1D9AA8958150A9F7CC24DD24C4
:107E500088248394B5E0AB2EA1E19A2EF3E0BF2EE7
:107E6000A2D0813461F49FD0082FAFD0023811F036
:107E7000013811F484E001C083E08DD089C08234E0
:107E800011F484E103C0853419F485E0A6D080C0E4
:107E9000853579F488D0E82EFF2485D0082F10E0AE
:107EA000102F00270E291F29000F111F8ED06801E7
:107EB0006FC0863521F484E090D080E0DECF843638
:107EC00009F040C070D06FD0082F6DD080E0C81688
:107ED00080E7D80618F4F601B7BEE895C0E0D1E017
:107EE00062D089930C17E1F7F0E0CF16F0E7DF06D8
:107EF00018F0F601B7BEE89568D007B600FCFDCFD4
:107F0000A601A0E0B1E02C9130E011968C91119780
:107F100090E0982F8827822B932B1296FA010C0160
:107F200087BEE89511244E5F5F4FF1E0A038BF0790
:107F300051F7F601A7BEE89507B600FCFDCF97BE46
:107F4000E89526C08437B1F42ED02DD0F82E2BD052
:107F50003CD0F601EF2C8F010F5F1F4F84911BD097
:107F6000EA94F801C1F70894C11CD11CFA94CF0C13
:107F7000D11C0EC0853739F428D08EE10CD085E9AC
:107F80000AD08FE07ACF813511F488E018D01DD067
:107F900080E101D065CF982F8091C00085FFFCCF94
:107FA0009093C60008958091C00087FFFCCF809118
:107FB000C00084FD01C0A8958091C6000895E0E648
:107FC000F0E098E1908380830895EDDF803219F02E
:107FD00088E0F5DFFFCF84E1DECF1F93182FE3DFCA
:107FE0001150E9F7F2DF1F91089580E0E8DFEE27F6
:047FF000FF270994CA
:027FFE00040479
:00000001FF
